{
    "contractName": "EIP712",
    "abi": [
        {
            "inputs": [],
            "name": "PLACEORDER_TYPEHASH",
            "outputs": [
                {
                    "internalType": "bytes32",
                    "name": "",
                    "type": "bytes32"
                }
            ],
            "stateMutability": "view",
            "type": "function"
        }
    ],
    "bytecode": "60a6610038600b82828239805160001a607314602b57634e487b7160e01b600052600060045260246000fd5b30600052607381538281f3fe730000000000000000000000000000000000000000301460806040526004361060335760003560e01c8063dbc9169f146038575b600080fd5b605e7f7223bc93299efda98caf6efe4084933b7a32a61206f72ed4303fe1419974747e81565b60405190815260200160405180910390f3fea2646970667358221220cf4b15d03629c51376fef01b0c8ce18310dda14859a8e9f742652e073805586c64736f6c63430008130033",
    "sourcePath": "/Users/anhletuanqt/Documents/Company/cxp/Archive/hardhat-ts/contracts/libraries/EIP712.sol",
    "compiler": {
        "name": "solc",
        "version": "0.8.19+commit.7dd6d404"
    },
    "functionHashes": {
        "PLACEORDER_TYPEHASH()": "dbc9169f"
    },
    "gasEstimates": {
        "creation": {
            "codeDepositCost": "33200",
            "executionCost": "118",
            "totalCost": "33318"
        },
        "external": {
            "PLACEORDER_TYPEHASH()": "145"
        },
        "internal": {
            "DOMAIN_SEPARATOR()": "infinite",
            "hashMessage(bytes32)": "infinite",
            "verifyGaslessOrder(struct Order memory,bytes calldata,uint256)": "infinite"
        }
    }
}